:1000000031C043C082C041C040C03FC03EC0A5C057
:100010003CC03BC03AC039C038C037C036C035C01C
:1000200034C033C032C031C0C8C0CEC0CFC0D4C0CD
:10003000DAC0DEC0E0C0E2C0E9C0ECC001C107C167
:1000400008C10DC113C117C119C11BC122C125C1EE
:100050003AC140C141C146C14CC150C152C154C155
:100060005BC15EC111241FBECFEFD1E0DEBFCDBFAB
:1000700011E0A0E0B1E0ECE7F5E002C005900D92E0
:10008000A030B107D9F702D077C2BACFF8D180B784
:10009000806880BF80917B008F7780937B008BEF9F
:1000A0008DB98FEF84B987B987EE8AB91EB815B8B4
:1000B00018B888E08BB980916900837F80936900CC
:1000C000E99AA89529E288E190E00FB6F894A895FE
:1000D000809360000FBE2093600080916000806478
:1000E000809360007894F89483B7816083BF85B76C
:1000F000806685BF8F7D85BF7894889583B78E7F16
:1001000083BFF1CF54D122D108951F920F920FB621
:100110000F9211242F933F934F935F936F937F938D
:100120008F939F93AF93BF93EF93FF937ED1EADFBB
:100130008CE792E90197F1F7FF91EF91BF91AF91B1
:100140009F918F917F916F915F914F913F912F91EF
:100150000F900FBE0F901F9018951F920F920FB621
:100160000F9211242F933F934F935F936F937F933D
:100170008F939F93AF93BF93EF93FF93C3DFE0E61B
:10018000F0E0808180648083FF91EF91BF91AF9117
:100190009F918F917F916F915F914F913F912F919F
:1001A0000F900FBE0F901F901895E82FF0E0EA30E7
:1001B000F105B0F5EC5EFF4F09945D982E982F98ED
:1001C0005F9829985E9820C05D9A19C05D982E9816
:1001D0002F9A5F98299805C05D982E982F985F9860
:1001E000299A5E9A23C05D9A2E982F985F9A16C01E
:1001F0005D982E9A11C05D982E9A0AC05D982E982F
:100200002F985F9A299A5E9A289A08955D982E9859
:100210002F9809C05D982E982F985F98299A05C04D
:100220005D982E9A2F9A5F9829985E98289808953D
:10023000E82FF0E0EA30F105B0F5E25EFF4F0994F7
:100240002B982A982C98709871982D9820C02B9AEA
:1002500019C02B982A982C9A7098719805C02B98E1
:100260002A982C987098719A2D9A23C02B9A2A98C4
:100270002C98709A16C02B982A9A11C02B982A9AFB
:100280000AC02B982A982C98709A719A2D9A479A9E
:1002900008952B982A982C9809C02B982A982C9866
:1002A0007098719A05C02B982A9A2C9A7098719818
:1002B0002D9847980895E82FF0E0EA30F105B0F561
:1002C000E85DFF4F09942A984098419844985898BF
:1002D000439820C0429A19C042984098419A449845
:1002E000589805C04298409841984498589A439A23
:1002F00023C0429A40984198449A16C04298409A26
:1003000011C04298409A0AC0429840984198449A35
:10031000589A439A459A089542984098419809C03E
:100320004298409841984498589A05C04298409AFB
:10033000419A44985898439845980895813019F403
:1003400059985A980895599A5A9A08950F931F9355
:100350008C018071907024E0969587952A95E1F73D
:10036000EDDF802F8F70A7DF812F8295877060DF90
:10037000812F8F701ADF1F910F910895482F6AE027
:10038000EFD0282F30E084E0220F331F8A95E1F769
:10039000842FE6D0892F820F0895282F82958F70A1
:1003A00090E06AE070E0CAD02F70820F0895EF925B
:1003B000FF920F931F9380ED75D081E085D081ED82
:1003C00067D0A0D0F82EEE249BD0082F75D010E077
:1003D0000E291F29C8011F910F91FF90EF900895DA
:1003E0001F93182F80ED5ED082E06ED0812FC6DF84
:1003F00080646AD061D01F9108951F93182F80EDFB
:1004000051D081E061D0812FB9DF5ED055D01F91EE
:1004100008951F93182F80ED45D080E055D0812F8F
:10042000ADDF52D049D01F9108951F93C0DF182F20
:10043000892FB3DF8B3358F0812F8F71AEDF8C3073
:1004400010F081E001C08F5FCBDF10E002C0182FF9
:100450001F5F80E0DEDF812FD0DF1F91089580EDE8
:1004600021D082E031D080E42FD026D0089500C082
:1004700000C000C000C000C000C0000008956A981D
:10048000549872985C9808956A9AF1DF1DD0089587
:10049000549AEDDF6A98EBDF5498E9DF6A9AE7DF58
:1004A00013D00895082E6A9AE2DF802D0DD088239C
:1004B00011F002D0F8CF0895549A6A9AD8DF549870
:1004C000D6DF6A98D4DF08950894881F01C0880F8A
:1004D00059F0549A18F400006A9802C06A9A00C051
:1004E000C6DF5498C4DFF3CF549A6A98C0DF54989B
:1004F0004C9BFECF8827629981E0B9DF9927089548
:10050000882701C081E071E0549A6A98B0DF54985E
:10051000AEDF4C9BFECF889462990894771FA0F7BA
:10052000549A813011F06A9801C06A9AA0DF5498F9
:100530004C9BFECF9CDF872F9927089555270024D9
:1005400080FF02C0060E571F660F771F61157105E9
:1005500021F096958795009799F7952F802D08950E
:10056000991B79E004C0991F961708F0961B881F05
:0C0570007A95C9F780950895F894FFCFA4
:00000001FF
