:1000000013C022C021C020C01FC01EC01DC01CC004
:100010001BC01AC019C018C017C016C015C014C024
:1000200013C012C011C010C011241FBECFEFD1E009
:10003000DEBFCDBF11E0A0E0B1E001C01D92A6304F
:10004000B107E1F702D07DC0DBCF80B7806880BF09
:1000500080917B008F7780937B008BEF8DB98FEF42
:1000600084B987B987EE8AB91EB815B818B888E080
:100070008BB9FFCF00C000C000C000C000C000C0EE
:10008000000008956A98549872985C9808956A9A46
:10009000F1DF1DD00895549AEDDF6A98EBDF549894
:1000A000E9DF6A9AE7DF13D00895082E6A9AE2DF43
:1000B000802D0DD0882311F002D0F8CF0895549AE6
:1000C0006A9AD8DF5498D6DF6A98D4DF08950894E6
:1000D000881F01C0880F59F0549A18F400006A98DC
:1000E00002C06A9A00C0C6DF5498C4DFF3CF549AA6
:1000F0006A98C0DF54984C9BFECF8827629981E0B4
:10010000B9DF99270895882701C081E071E0549AEA
:100110006A98B0DF5498AEDF4C9BFECF889462990A
:100120000894771FA0F7549A813011F06A9801C0A3
:100130006A9AA0DF54984C9BFECF9CDF872F9927AB
:060140000895F894FFCFC2
:00000001FF
