:1000000031C04BC078C049C048C047C046C045C099
:1000100044C043C042C041C040C03FC0BAC03DC060
:100020003CC03BC03AC039C0DFC0E5C0E6C0EBC051
:10003000F1C0F5C0F7C0F9C000C103C118C11EC1AD
:100040001FC124C12AC12EC130C132C139C13CC136
:1000500051C157C158C15DC163C167C169C16BC19D
:1000600072C175C111241FBECFEFD1E0DEBFCDBF7D
:1000700011E0A0E0B1E0ECE4F4E002C005900D92E4
:10008000A030B107D9F711E0A0E0B1E001C01D92A6
:10009000A230B107E1F702D0D7C1B2CF88E090E03B
:1000A00020E80FB6F89420936100809361000FBEA2
:1000B0006CD180B7806880BF80917B008F77809300
:1000C0007B008BEF8DB98FEF84B987B987EE8AB942
:1000D0001EB815B818B888E08BB980916900837F85
:1000E00080936900E99A81E080936E0085E085BD88
:1000F00016BC7894FFCF1F920F920FB60F92112467
:100100002F933F934F935F936F937F938F939F931F
:10011000AF93BF93EF93FF9381E027D180E0E2D0CC
:1001200080E09DD080E058D084E89EE10197F1F70F
:10013000FF91EF91BF91AF919F918F917F916F91BF
:100140005F914F913F912F910F900FBE0F901F9095
:10015000189580ED2DD181E03DD181ED1FD158D191
:100160008093000153D1809301012CD18091010132
:1001700082958170FAD0809101018F70B3D0809107
:100180000001829587706BD0809100018F7024D020
:1001900008951F920F920FB60F9211242F933F9341
:1001A0004F935F936F937F938F939F93AF93BF937F
:1001B000EF93FF93CEDFFF91EF91BF91AF919F91AE
:1001C0008F917F916F915F914F913F912F910F9000
:1001D0000FBE0F901F901895E82FF0E0EA30F10560
:1001E000B0F5EC5EFF4F09945D982E982F985F98BC
:1001F00029985E9820C05D9A19C05D982E982F9A14
:100200005F98299805C05D982E982F985F98299A35
:100210005E9A23C05D9A2E982F985F9A16C05D98BB
:100220002E9A11C05D982E9A0AC05D982E982F982C
:100230005F9A299A5E9A289A08955D982E982F9829
:1002400009C05D982E982F985F98299A05C05D98EF
:100250002E9A2F9A5F9829985E9828980895E82FEB
:10026000F0E0EA30F105B0F5E25EFF4F09942B981B
:100270002A982C98709871982D9820C02B9A19C0A4
:100280002B982A982C9A7098719805C02B982A98C8
:100290002C987098719A2D9A23C02B9A2A982C9892
:1002A000709A16C02B982A9A11C02B982A9A0AC0C5
:1002B0002B982A982C98709A719A2D9A479A08959B
:1002C0002B982A982C9809C02B982A982C987098CB
:1002D000719A05C02B982A9A2C9A709871982D982B
:1002E00047980895E82FF0E0EA30F105B0F5E85DB1
:1002F000FF4F09942A9840984198449858984398F9
:1003000020C0429A19C042984098419A44985898FF
:1003100005C04298409841984498589A439A23C0FF
:10032000429A40984198449A16C04298409A11C007
:100330004298409A0AC0429840984198449A589AE4
:10034000439A459A089542984098419809C0429826
:10035000409841984498589A05C04298409A419ACA
:1003600044985898439845980895813019F45998BD
:100370005A980895599A5A9A089500C000C000C02A
:1003800000C000C000C0000008956A985498729898
:100390005C9808956A9AF1DF1DD00895549AEDDFB4
:1003A0006A98EBDF5498E9DF6A9AE7DF13D0089583
:1003B000082E6A9AE2DF802D0DD0882311F002D03A
:1003C000F8CF0895549A6A9AD8DF5498D6DF6A987D
:1003D000D4DF08950894881F01C0880F59F0549AFB
:1003E00018F400006A9802C06A9A00C0C6DF5498E8
:1003F000C4DFF3CF549A6A98C0DF54984C9BFECF69
:100400008827629981E0B9DF99270895882701C07C
:1004100081E071E0549A6A98B0DF5498AEDF4C9B4B
:10042000FECF889462990894771FA0F7549A813080
:1004300011F06A9801C06A9AA0DF54984C9BFECFD5
:0C0440009CDF872F99270895F894FFCFC8
:00000001FF
