:100000001CC034C033C032C031C030C0B1C02EC0FB
:100010002DC02CC02BC02AC029C028C027C026C094
:1000200025C024C023C03DC02CC029C02CC02DC079
:100030002EC02FC030C031C032C011241FBECFED42
:10004000CDBF10E0A0E6B0E0EEE9F2E002C005901E
:100050000D92A036B107D9F710E0A0E6B0E001C0DC
:100060001D92A736B107E1F720D017C1C9CFE82FFD
:10007000F0E0EA30F105B8F4ED5EFF4F099482E656
:1000800008958EEB08958AE208958CE3089589E23D
:10009000089581E208958AEB089580E2089588E248
:1000A000089580EA08958FEF089598D0479A8FEFCA
:1000B00087BB86E081BB83E08ABB18BA82E089BF38
:1000C00085E083BF12BE789422EE34E08091640014
:1000D000803A41F08091640088BBD99AC9010197A8
:1000E000F1F7D9988091650088BBD89AC90101972A
:1000F000F1F7D8988091620088BB929AC901019764
:10010000F1F792988091630088BB919AC901019799
:10011000F1F79198DBCF80ED74D081E084D081ED50
:1001200066D09FD0809360009AD08093610073D096
:1001300080916000829587709ADF80936200809141
:1001400060008F7094DF80936300809161008295DE
:1001500081708DDF80936400809161008F7087DFF4
:1001600080936500809165008F7D80936500089580
:100170001F920F920FB60F9211242F933F934F931C
:100180005F936F937F938F939F93AF93BF93EF93FF
:10019000FF93809166008F5F809366008091660078
:1001A000853618F010926600B6DFFF91EF91BF918F
:1001B000AF919F918F917F916F915F914F913F91FF
:1001C0002F910F900FBE0F901F90189500C000C088
:1001D00000C000C000C000C0000008958C988B983B
:1001E0009498939808958C9AF1DF1DD008958B9A76
:1001F000EDDF8C98EBDF8B98E9DF8C9AE7DF13D08B
:100200000895082E8C9AE2DF802D0DD0882311F0FE
:1002100002D0F8CF08958B9A8C9AD8DF8B98D6DFCE
:100220008C98D4DF08950894881F01C0880F59F076
:100230008B9A18F400008C9802C08C9A00C0C6DF1C
:100240008B98C4DFF3CF8B9A8C98C0DF8B98839BFD
:10025000FECF8827849981E0B9DF99270895882700
:1002600001C081E071E08B9A8C98B0DF8B98AEDF93
:10027000839BFECF889484990894771FA0F78B9A6C
:10028000813011F08C9801C08C9AA0DF8B98839BF1
:0E029000FECF9CDF872F99270895F894FFCFAB
:00000001FF
