:100000001CC034C033C032C031C030C094C02EC018
:100010002DC02CC02BC02AC029C028C027C026C094
:1000200025C024C023C056C045C042C045C046C0FC
:1000300047C048C049C04AC04BC011241FBECFEDC5
:10004000CDBF10E0A0E6B0E0ECE8F3E002C0059020
:100050000D92A036B107D9F710E0A0E6B0E001C0DC
:100060001D92A736B107E1F7C6D08EC1C9CF482F80
:100070006AE07ED1282F30E084E0220F331F8A957A
:10008000E1F7842F75D1892F820F0895282F82954B
:100090008F7090E06AE070E059D12F70820F089560
:1000A000E82FF0E0EA30F105B8F4ED5EFF4F099477
:1000B00082E608958EEB08958AE208958CE3089510
:1000C00089E2089581E208958AEB089580E2089517
:1000D00088E2089580EA08958FEF089580EDEAD0D0
:1000E00081E0FAD081EDDCD015D18093600010D191
:1000F00080936100E9D08091600082958770D0DFA5
:1001000080936200809160008F70CADF80936300EB
:100110008091610082958170C3DF8093640080913B
:1001200061008F70BDDF80936500809165008F7DD9
:100130008093650008951F920F920FB60F921124BD
:100140002F933F934F935F936F937F938F939F93DF
:10015000AF93BF93EF93FF93809166008F5F80937F
:10016000660080916600853618F010926600B6DF52
:10017000FF91EF91BF91AF919F918F917F916F917F
:100180005F914F913F912F910F900FBE0F901F9055
:1001900018951F93182F80ED8DD082E09DD0812F70
:1001A00066DF806499D090D01F9108951F93182F17
:1001B00080ED80D081E090D0812F59DF8DD084D028
:1001C0001F9108951F938ADF109161008091600054
:1001D0005DDF8B3358F0812F8F7158DF8C3010F03A
:1001E00081E001C08F5FD5DF80E001C08F5FDEDF7F
:1001F00075DF1F9108950F931F93CF93DF9347D01F
:10020000479A8FEF87BB86E081BB8E9883E08ABBDD
:1002100018BA969A82E089BF85E083BF12BE7894AF
:1002200008EA11E6C2EED4E0869904C0CBDFC8012B
:100230000197F1F780916400803A41F08091640069
:1002400088BBD99ACE010197F1F7D99880916500C2
:1002500088BBD89ACE010197F1F7D89880916200B7
:1002600088BB929ACE010197F1F792988091630032
:1002700088BB919ACE010197F1F79198D5CF00C034
:1002800000C000C000C000C000C0000008958C98ED
:100290008B989498939808958C9AF1DF1DD00895C7
:1002A0008B9AEDDF8C98EBDF8B98E9DF8C9AE7DF98
:1002B00013D00895082E8C9AE2DF802D0DD088236C
:1002C00011F002D0F8CF08958B9A8C9AD8DF8B98D2
:1002D000D6DF8C98D4DF08950894881F01C0880F5A
:1002E00059F08B9A18F400008C9802C08C9A00C0C8
:1002F000C6DF8B98C4DFF3CF8B9A8C98C0DF8B98C6
:10030000839BFECF8827849981E0B9DF99270895E0
:10031000882701C081E071E08B9A8C98B0DF8B98C0
:10032000AEDF839BFECF889484990894771FA0F753
:100330008B9A813011F08C9801C08C9AA0DF8B9839
:10034000839BFECF9CDF872F992708955527002494
:1003500080FF02C0060E571F660F771F61157105DB
:1003600021F096958795009799F7952F802D089500
:10037000991B79E004C0991F961708F0961B881FF7
:0C0380007A95C9F780950895F894FFCF96
:00000001FF
