:1000000012C01FC01EC01DC01CC01BC01BC019C019
:1000100018C017C016C015C014C013C012C011C03C
:1000200010C00FC00EC011241FBECFEDCDBF10E019
:10003000A0E6B0E001C01D92A136B107E1F714D0EF
:1000400024C0DECF1F920F920FB60F9211248F9310
:100050009F9388B391E0892788BB9F918F910F90E0
:100060000FBE0F901F90189588E090E020E80FB623
:10007000F89426BD86BD0FBE82E089BF85E083BFB0
:0E00800012BE789481E087BBFFCFF894FFCFCB
:00000001FF
